:1000000019C031C030C02FC02EC02DC02DC02BC094
:100010002AC029C045C046C047C048C049C04AC0E0
:100020004BC04CC084C07EC078C072C06CC066C07B
:1000300060C058C011241FBECFE9CDBF10E0A0E6BC
:10004000B0E0E8E8F1E002C005900D92A036B107FB
:10005000D9F710E0A0E6B0E001C01D92A436B107C8
:10006000E1F776D08FC0CCCF1F920F920FB60F92D0
:1000700011248F939F93EF93FF93B09921C08091A8
:10008000600090916100892BD9F4E0916200F091B9
:100090006300E830F10508F052C0E65FFF4F0994B5
:1000A00082E046C086E03FC084E038C08CE031C0CA
:1000B00088E02AC088E123C080E11CC082E113C02F
:1000C000B0993DC080916000909161000197B9F5B1
:1000D000E0916200F0916300E830F10580F5EE5E9A
:1000E000FF4F099482E088BB109263001092620077
:1000F00026C086E088BB87E090E01DC084E088BB16
:1001000086E090E018C08CE088BB85E090E013C0EA
:1001100088E088BB84E090E00EC088E188BB83E083
:1001200090E009C080E188BB82E090E004C082E1F9
:1001300088BB81E090E09093630080936200FF9120
:10014000EF919F918F910F900FBE0F901F90189578
:1001500081E088BB8EE187BB86B78A6086BF8FB59A
:1001600080688FBD83B7816083BF89B7846089BF92
:10017000B09906C081E090E09093610080936000A8
:080180007894FFCFF894FFCF43
:00000001FF
