:1000000011C029C028C027C026C025C025C023C0D4
:1000100022C021C036C03AC03EC042C046C04AC01D
:100020004EC056C011241FBECFE9CDBF10E0A0E6E0
:10003000B0E0E6E1F1E002C005900D92A036B10714
:10004000D9F710E0A0E6B0E001C01D92A236B107DA
:10005000E1F74DD05EC0D4CF1F920F920FB60F9232
:1000600011248F939F93EF93FF93B09937C0E09142
:100070006000F0916100E830F10580F5E65FFF4F28
:10008000099482E088BB81E090E01DC086E088BBD7
:1000900082E090E018C084E088BB83E090E013C069
:1000A0008CE088BB84E090E00EC088E088BB85E0EF
:1000B00090E009C088E188BB86E090E004C080E160
:1000C00088BB87E090E0909361008093600006C059
:1000D00082E188BB1092610010926000FF91EF9165
:1000E0009F918F910F900FBE0F901F90189581E0F8
:1000F00088BB8EE187BB86B78A6086BF8FB5806874
:100100008FBD83B7816083BF89B7846089BF7894CE
:06011000FFCFF894FFCFC1
:00000001FF
